S00D00004C616230362E73726563A2
S113000045C00000EDC100005EC000005CC00000FF
S11300105AC0000058C0000056C0000054C0000080
S113002052C0000050C000004EC000004CC0000090
S11300304AC0000048C0000046C0000044C00000A0
S11300409EC1000040C000003EC000003CC0000053
S11300503AC0000038C0000036C0000034C00000C0
S113006032C0000030C000002EC000002CC00000D0
S11300702AC0000028C0000026C0000024C00000E0
S113008022C0000020C000001EC0000011241FBEBA
S1130090CFEFD0E1DEBFCDBF11E0A0E0B1E0E2E6FA
S11300A0F4E000E00BBF02C007900D92A030B1074E
S11300B0D9F721E0A0E0B1E001C01D92A330B2075E
S11300C0E1F702D0CCC19CCFCF93DF9300D000D016
S11300D0CDB7DEB710920201109201011092000117
S11300E08AE390E02FEFFC0120838BE390E02FEF75
S11300F0FC01208383E590E024E0FC01208382E579
S113010090E02EE8FC01208387E590E021E0FC01EB
S1130110208387E390E027E330E0F90120812E7FFC
S1130120FC01208388E390E028E330E0F90120819A
S11301302160FC01208381E390E021E330E0F901B8
S113014020812E7FFC01208382E390E022E330E0D3
S1130150F90120812160FC0120838AE690E023E0FC
S1130160FC01208389E590E021E0FC012083789460
S11301701A8219828BE390E021E030E0098002C00A
S1130180220F331F0A94E2F72095FC01208381E0BB
S113019090E09C838B838091010190910201C2972E
S11301A0D0F3109202011092010180910001882F76
S11301B090E08230910509F444C0833091052CF419
S11301C0009731F1019749F0D9C08330910509F4C2
S11301D07AC0049709F490C0D1C089819A81892B8F
S11301E021F488E090E09A83898389819A81019738
S11301F09A8389838BE390E021E030E0098002C098
S1130200220F331F0A94E2F72095FC012083B6C025
S113021089819A8101969A83898389819A81089731
S113022011F41A8219828BE390E021E030E0098016
S113023002C0220F331F0A94E2F72095FC012083A9
S11302409DC089819A81892B49F489819A819C83F3
S11302508B8381E090E09A83898327C089819A8186
S1130260079749F489819A819C838B8386E090E087
S11302709A8389831AC02B813C8189819A812817AA
S1130280390750F489819A819C838B8389819A816F
S113029001969A83898309C089819A819C838B837F
S11302A089819A8101979A8389838BE390E021E085
S11302B030E0098002C0220F331F0A94E2F7209530
S11302C0FC0120835BC089819A8102969A83898389
S11302D089819A81089711F41A8219828BE390E03C
S11302E021E030E0098002C0220F331F0A94E2F7B4
S11302F02095FC01208342C089819A81892B49F48D
S113030089819A819C838B8381E090E09A8389839D
S113031027C089819A81039749F489819A819C83B2
S11303208B8382E090E09A8389831AC02B813C817D
S113033089819A812817390750F489819A819C838D
S11303408B8389819A8101969A83898309C08981E3
S11303509A819C838B8389819A8101979A8389836B
S11303608BE390E021E030E0098002C0220F331FCC
S11303700A94E2F72095FC01208300000CCF1F9221
S11303800F9200905F000F92112400905B000F9277
S11303902F938F939F93EF93FF93CF93DF93CDB7D7
S11303A0DEB78091010190910201019690930201C0
S11303B08093010182E590E02EE8FC012083000097
S11303C0DF91CF91FF91EF919F918F912F910F909A
S11303D000925B000F9000925F000F901F901895A1
S11303E01F920F9200905F000F9211248F939F939E
S11303F0CF93DF93CDB7DEB780910001882F90E0D3
S113040082309105B1F0833091052CF4009749F0C6
S1130410019759F019C08330910579F0049789F058
S113042013C081E0809300010FC082E0809300013B
S11304300BC083E08093000107C084E08093000137
S113044003C01092000100000000DF91CF919F9142
S11304508F910F9000925F000F901F901895F89461
S1050460FFCFC8
S9030000FC
